{
  "_format": "hh-sol-artifact-1",
  "contractName": "BankAccount",
  "sourceName": "contracts/BankAccount.sol",
  "abi": [
    {
      "anonymous": false,
      "inputs": [
        {
          "indexed": false,
          "internalType": "address[]",
          "name": "owners",
          "type": "address[]"
        },
        {
          "indexed": true,
          "internalType": "uint256",
          "name": "id",
          "type": "uint256"
        },
        {
          "indexed": false,
          "internalType": "uint256",
          "name": "timestamp",
          "type": "uint256"
        }
      ],
      "name": "AccountCreated",
      "type": "event"
    },
    {
      "anonymous": false,
      "inputs": [
        {
          "indexed": true,
          "internalType": "address",
          "name": "user",
          "type": "address"
        },
        {
          "indexed": true,
          "internalType": "uint256",
          "name": "accountID",
          "type": "uint256"
        },
        {
          "indexed": false,
          "internalType": "uint256",
          "name": "value",
          "type": "uint256"
        },
        {
          "indexed": false,
          "internalType": "uint256",
          "name": "timestamp",
          "type": "uint256"
        }
      ],
      "name": "Deposit",
      "type": "event"
    },
    {
      "anonymous": false,
      "inputs": [
        {
          "indexed": true,
          "internalType": "uint256",
          "name": "withdrawId",
          "type": "uint256"
        },
        {
          "indexed": false,
          "internalType": "uint256",
          "name": "timestamp",
          "type": "uint256"
        }
      ],
      "name": "Withdraw",
      "type": "event"
    },
    {
      "anonymous": false,
      "inputs": [
        {
          "indexed": true,
          "internalType": "address",
          "name": "userm",
          "type": "address"
        },
        {
          "indexed": true,
          "internalType": "uint256",
          "name": "accountID",
          "type": "uint256"
        },
        {
          "indexed": true,
          "internalType": "uint256",
          "name": "withdrawID",
          "type": "uint256"
        },
        {
          "indexed": false,
          "internalType": "uint256",
          "name": "amount",
          "type": "uint256"
        },
        {
          "indexed": false,
          "internalType": "uint256",
          "name": "timestamp",
          "type": "uint256"
        }
      ],
      "name": "WithdrawRequested",
      "type": "event"
    },
    {
      "inputs": [
        {
          "internalType": "uint256",
          "name": "accountId",
          "type": "uint256"
        },
        {
          "internalType": "uint256",
          "name": "withdrawId",
          "type": "uint256"
        }
      ],
      "name": "approvalWithdrawl",
      "outputs": [],
      "stateMutability": "nonpayable",
      "type": "function"
    },
    {
      "inputs": [
        {
          "internalType": "address[]",
          "name": "otherOwners",
          "type": "address[]"
        }
      ],
      "name": "createAccount",
      "outputs": [],
      "stateMutability": "nonpayable",
      "type": "function"
    },
    {
      "inputs": [
        {
          "internalType": "uint256",
          "name": "accountId",
          "type": "uint256"
        }
      ],
      "name": "deposit",
      "outputs": [],
      "stateMutability": "payable",
      "type": "function"
    },
    {
      "inputs": [],
      "name": "getAccounts",
      "outputs": [
        {
          "internalType": "uint256[]",
          "name": "",
          "type": "uint256[]"
        }
      ],
      "stateMutability": "view",
      "type": "function"
    },
    {
      "inputs": [
        {
          "internalType": "uint256",
          "name": "accountId",
          "type": "uint256"
        },
        {
          "internalType": "uint256",
          "name": "withdrawId",
          "type": "uint256"
        }
      ],
      "name": "getApprovals",
      "outputs": [
        {
          "internalType": "uint256",
          "name": "",
          "type": "uint256"
        }
      ],
      "stateMutability": "view",
      "type": "function"
    },
    {
      "inputs": [
        {
          "internalType": "uint256",
          "name": "accountId",
          "type": "uint256"
        }
      ],
      "name": "getBalance",
      "outputs": [
        {
          "internalType": "uint256",
          "name": "",
          "type": "uint256"
        }
      ],
      "stateMutability": "view",
      "type": "function"
    },
    {
      "inputs": [
        {
          "internalType": "uint256",
          "name": "accountId",
          "type": "uint256"
        }
      ],
      "name": "getOwners",
      "outputs": [
        {
          "internalType": "address[]",
          "name": "",
          "type": "address[]"
        }
      ],
      "stateMutability": "view",
      "type": "function"
    },
    {
      "inputs": [
        {
          "internalType": "uint256",
          "name": "accountId",
          "type": "uint256"
        },
        {
          "internalType": "uint256",
          "name": "amount",
          "type": "uint256"
        }
      ],
      "name": "requestWithdrawl",
      "outputs": [],
      "stateMutability": "nonpayable",
      "type": "function"
    },
    {
      "inputs": [
        {
          "internalType": "uint256",
          "name": "accountId",
          "type": "uint256"
        },
        {
          "internalType": "uint256",
          "name": "withdrawId",
          "type": "uint256"
        }
      ],
      "name": "withdraw",
      "outputs": [],
      "stateMutability": "nonpayable",
      "type": "function"
    }
  ],
  "bytecode": "0x608060405234801561001057600080fd5b50611d28806100206000396000f3fe6080604052600436106100865760003560e01c80638a48ac03116100595780638a48ac0314610157578063a52a6f9a14610182578063b6b55f25146101ab578063ee4525d5146101c7578063eff634331461020457610086565b80631e0104391461008b578063441a3e70146100c85780637ea2f5a2146100f1578063867275a51461011a575b600080fd5b34801561009757600080fd5b506100b260048036038101906100ad919061125b565b61022d565b6040516100bf9190611297565b60405180910390f35b3480156100d457600080fd5b506100ef60048036038101906100ea91906112b2565b61024c565b005b3480156100fd57600080fd5b50610118600480360381019061011391906112b2565b610557565b005b34801561012657600080fd5b50610141600480360381019061013c91906112b2565b610951565b60405161014e9190611297565b60405180910390f35b34801561016357600080fd5b5061016c610985565b60405161017991906113b0565b60405180910390f35b34801561018e57600080fd5b506101a960048036038101906101a491906112b2565b610a1a565b005b6101c560048036038101906101c0919061125b565b610bcf565b005b3480156101d357600080fd5b506101ee60048036038101906101e9919061125b565b610c6a565b6040516101fb91906114c2565b60405180910390f35b34801561021057600080fd5b5061022b60048036038101906102269190611549565b610d0d565b005b6000806000838152602001908152602001600020600101549050919050565b81813373ffffffffffffffffffffffffffffffffffffffff16600080848152602001908152602001600020600201600083815260200190815260200160002060000160009054906101000a900473ffffffffffffffffffffffffffffffffffffffff1673ffffffffffffffffffffffffffffffffffffffff1614610305576040517f08c379a00000000000000000000000000000000000000000000000000000000081526004016102fc906115f3565b60405180910390fd5b600080838152602001908152602001600020600201600082815260200190815260200160002060040160009054906101000a900460ff1661037b576040517f08c379a00000000000000000000000000000000000000000000000000000000081526004016103729061165f565b60405180910390fd5b6000806000868152602001908152602001600020600201600085815260200190815260200160002060010154905080600080878152602001908152602001600020600101541015610401576040517f08c379a00000000000000000000000000000000000000000000000000000000081526004016103f8906116cb565b60405180910390fd5b806000808781526020019081526020016000206001016000828254610426919061171a565b925050819055506000808681526020019081526020016000206002016000858152602001908152602001600020600080820160006101000a81549073ffffffffffffffffffffffffffffffffffffffff0219169055600182016000905560028201600090556004820160006101000a81549060ff0219169055505060003373ffffffffffffffffffffffffffffffffffffffff16826040516104c79061177f565b60006040518083038185875af1925050503d8060008114610504576040519150601f19603f3d011682016040523d82523d6000602084013e610509565b606091505b505090508061051757600080fd5b847f56ca301a9219608c91e7bcee90e083c19671d2cdcc96752c7af291cee5f9c8c8426040516105479190611297565b60405180910390a2505050505050565b816000806000808481526020019081526020016000206000018054905081101561058057600191505b50806105c1576040517f08c379a00000000000000000000000000000000000000000000000000000000081526004016105b89061184e565b60405180910390fd5b8383600080838152602001908152602001600020600201600082815260200190815260200160002060040160009054906101000a900460ff161561063a576040517f08c379a0000000000000000000000000000000000000000000000000000000008152600401610631906118ba565b60405180910390fd5b3373ffffffffffffffffffffffffffffffffffffffff16600080848152602001908152602001600020600201600083815260200190815260200160002060000160009054906101000a900473ffffffffffffffffffffffffffffffffffffffff1673ffffffffffffffffffffffffffffffffffffffff16036106f1576040517f08c379a00000000000000000000000000000000000000000000000000000000081526004016106e890611926565b60405180910390fd5b600073ffffffffffffffffffffffffffffffffffffffff16600080848152602001908152602001600020600201600083815260200190815260200160002060000160009054906101000a900473ffffffffffffffffffffffffffffffffffffffff1673ffffffffffffffffffffffffffffffffffffffff16036107a9576040517f08c379a00000000000000000000000000000000000000000000000000000000081526004016107a090611992565b60405180910390fd5b600080838152602001908152602001600020600201600082815260200190815260200160002060030160003373ffffffffffffffffffffffffffffffffffffffff1673ffffffffffffffffffffffffffffffffffffffff16815260200190815260200160002060009054906101000a900460ff161561085d576040517f08c379a000000000000000000000000000000000000000000000000000000000815260040161085490611a24565b60405180910390fd5b60008060008881526020019081526020016000206002016000878152602001908152602001600020905080600201600081548092919061089c90611794565b919050555060018160030160003373ffffffffffffffffffffffffffffffffffffffff1673ffffffffffffffffffffffffffffffffffffffff16815260200190815260200160002060006101000a81548160ff021916908315150217905550600160008089815260200190815260200160002060000180549050610920919061171a565b8160020154036109485760018160040160006101000a81548160ff0219169083151502179055505b50505050505050565b6000806000848152602001908152602001600020600201600083815260200190815260200160002060020154905092915050565b6060600160003373ffffffffffffffffffffffffffffffffffffffff1673ffffffffffffffffffffffffffffffffffffffff168152602001908152602001600020805480602002602001604051908101604052809291908181526020018280548015610a1057602002820191906000526020600020905b8154815260200190600101908083116109fc575b5050505050905090565b8160008060008084815260200190815260200160002060000180549050811015610a4357600191505b5080610a84576040517f08c379a0000000000000000000000000000000000000000000000000000000008152600401610a7b9061184e565b60405180910390fd5b838380600080848152602001908152602001600020600101541015610ade576040517f08c379a0000000000000000000000000000000000000000000000000000000008152600401610ad5906116cb565b60405180910390fd5b60006003549050600080600089815260200190815260200160002060020160008381526020019081526020016000209050338160000160006101000a81548173ffffffffffffffffffffffffffffffffffffffff021916908373ffffffffffffffffffffffffffffffffffffffff16021790555086816001018190555060036000815480929190610b6e90611794565b919050555081883373ffffffffffffffffffffffffffffffffffffffff167f1f0d204a59639d21245dbaa239dfc9a6227aa86cb614bdda19843c52d155fcfa8a42604051610bbd929190611a44565b60405180910390a45050505050505050565b8060008060008084815260200190815260200160002060000180549050811015610bf857600191505b5080610c39576040517f08c379a0000000000000000000000000000000000000000000000000000000008152600401610c309061184e565b60405180910390fd5b346000808581526020019081526020016000206001016000828254610c5e9190611a6d565b92505081905550505050565b6060600080838152602001908152602001600020600001805480602002602001604051908101604052809291908181526020018280548015610d0157602002820191906000526020600020905b8160009054906101000a900473ffffffffffffffffffffffffffffffffffffffff1673ffffffffffffffffffffffffffffffffffffffff1681526020019060010190808311610cb7575b50505050509050919050565b81816004600183839050610d219190611a6d565b1115610d62576040517f08c379a0000000000000000000000000000000000000000000000000000000008152600401610d5990611aed565b60405180910390fd5b60005b82829050811015610e70576000600182610d7f9190611a6d565b90505b83839050811015610e5c57838382818110610da057610d9f611b0d565b5b9050602002016020810190610db59190611b68565b73ffffffffffffffffffffffffffffffffffffffff16848484818110610dde57610ddd611b0d565b5b9050602002016020810190610df39190611b68565b73ffffffffffffffffffffffffffffffffffffffff1603610e49576040517f08c379a0000000000000000000000000000000000000000000000000000000008152600401610e4090611be1565b60405180910390fd5b8080610e5490611794565b915050610d82565b508080610e6890611794565b915050610d65565b506000600185859050610e839190611a6d565b67ffffffffffffffff811115610e9c57610e9b611c01565b5b604051908082528060200260200182016040528015610eca5781602001602082028036833780820191505090505b50905033818686905081518110610ee457610ee3611b0d565b5b602002602001019073ffffffffffffffffffffffffffffffffffffffff16908173ffffffffffffffffffffffffffffffffffffffff16815250506000600254905060005b82518110156110ef5760018351610f3f919061171a565b811015610fbc57868682818110610f5957610f58611b0d565b5b9050602002016020810190610f6e9190611b68565b838281518110610f8157610f80611b0d565b5b602002602001019073ffffffffffffffffffffffffffffffffffffffff16908173ffffffffffffffffffffffffffffffffffffffff16815250505b600260016000858481518110610fd557610fd4611b0d565b5b602002602001015173ffffffffffffffffffffffffffffffffffffffff1673ffffffffffffffffffffffffffffffffffffffff16815260200190815260200160002080549050111561105c576040517f08c379a000000000000000000000000000000000000000000000000000000000815260040161105390611ca2565b60405180910390fd5b6001600084838151811061107357611072611b0d565b5b602002602001015173ffffffffffffffffffffffffffffffffffffffff1673ffffffffffffffffffffffffffffffffffffffff16815260200190815260200160002082908060018154018082558091505060019003906000526020600020016000909190919091505580806110e790611794565b915050610f28565b50816000808381526020019081526020016000206000019080519060200190611119929190611174565b506002600081548092919061112d90611794565b9190505550807f1dfea57c7217d8ee2ef44253419f3a05acdf0e6dea69f12e9e2afa2e748e3c8c8342604051611164929190611cc2565b60405180910390a2505050505050565b8280548282559060005260206000209081019282156111ed579160200282015b828111156111ec5782518260006101000a81548173ffffffffffffffffffffffffffffffffffffffff021916908373ffffffffffffffffffffffffffffffffffffffff16021790555091602001919060010190611194565b5b5090506111fa91906111fe565b5090565b5b808211156112175760008160009055506001016111ff565b5090565b600080fd5b600080fd5b6000819050919050565b61123881611225565b811461124357600080fd5b50565b6000813590506112558161122f565b92915050565b6000602082840312156112715761127061121b565b5b600061127f84828501611246565b91505092915050565b61129181611225565b82525050565b60006020820190506112ac6000830184611288565b92915050565b600080604083850312156112c9576112c861121b565b5b60006112d785828601611246565b92505060206112e885828601611246565b9150509250929050565b600081519050919050565b600082825260208201905092915050565b6000819050602082019050919050565b61132781611225565b82525050565b6000611339838361131e565b60208301905092915050565b6000602082019050919050565b600061135d826112f2565b61136781856112fd565b93506113728361130e565b8060005b838110156113a357815161138a888261132d565b975061139583611345565b925050600181019050611376565b5085935050505092915050565b600060208201905081810360008301526113ca8184611352565b905092915050565b600081519050919050565b600082825260208201905092915050565b6000819050602082019050919050565b600073ffffffffffffffffffffffffffffffffffffffff82169050919050565b6000611429826113fe565b9050919050565b6114398161141e565b82525050565b600061144b8383611430565b60208301905092915050565b6000602082019050919050565b600061146f826113d2565b61147981856113dd565b9350611484836113ee565b8060005b838110156114b557815161149c888261143f565b97506114a783611457565b925050600181019050611488565b5085935050505092915050565b600060208201905081810360008301526114dc8184611464565b905092915050565b600080fd5b600080fd5b600080fd5b60008083601f840112611509576115086114e4565b5b8235905067ffffffffffffffff811115611526576115256114e9565b5b602083019150836020820283011115611542576115416114ee565b5b9250929050565b600080602083850312156115605761155f61121b565b5b600083013567ffffffffffffffff81111561157e5761157d611220565b5b61158a858286016114f3565b92509250509250929050565b600082825260208201905092915050565b7f596f7520646964206e6f74206372656174652074686973207265717565737400600082015250565b60006115dd601f83611596565b91506115e8826115a7565b602082019050919050565b6000602082019050818103600083015261160c816115d0565b9050919050565b7f546869732072657175657374206973206e6f7420617070726f76656421000000600082015250565b6000611649601d83611596565b915061165482611613565b602082019050919050565b600060208201905081810360008301526116788161163c565b9050919050565b7f496e73756666696369656e742062616c616e6365000000000000000000000000600082015250565b60006116b5601483611596565b91506116c08261167f565b602082019050919050565b600060208201905081810360008301526116e4816116a8565b9050919050565b7f4e487b7100000000000000000000000000000000000000000000000000000000600052601160045260246000fd5b600061172582611225565b915061173083611225565b9250828203905081811115611748576117476116eb565b5b92915050565b600081905092915050565b50565b600061176960008361174e565b915061177482611759565b600082019050919050565b600061178a8261175c565b9150819050919050565b600061179f82611225565b91507fffffffffffffffffffffffffffffffffffffffffffffffffffffffffffffffff82036117d1576117d06116eb565b5b600182019050919050565b7f596f7520617265206e6f74206f776e6572206f662074686973206163636f756e60008201527f7400000000000000000000000000000000000000000000000000000000000000602082015250565b6000611838602183611596565b9150611843826117dc565b604082019050919050565b600060208201905081810360008301526118678161182b565b9050919050565b7f74686973207265717565737420697320616c726561647920617070726f766564600082015250565b60006118a4602083611596565b91506118af8261186e565b602082019050919050565b600060208201905081810360008301526118d381611897565b9050919050565b7f796f752063616e6e6f7420746869732072657175657374000000000000000000600082015250565b6000611910601783611596565b915061191b826118da565b602082019050919050565b6000602082019050818103600083015261193f81611903565b9050919050565b7f74686973207265717565737420646f6573206e6f742065786973740000000000600082015250565b600061197c601b83611596565b915061198782611946565b602082019050919050565b600060208201905081810360008301526119ab8161196f565b9050919050565b7f596f7520616c726561647920617070726f76656420746869732072657175657360008201527f7400000000000000000000000000000000000000000000000000000000000000602082015250565b6000611a0e602183611596565b9150611a19826119b2565b604082019050919050565b60006020820190508181036000830152611a3d81611a01565b9050919050565b6000604082019050611a596000830185611288565b611a666020830184611288565b9392505050565b6000611a7882611225565b9150611a8383611225565b9250828201905080821115611a9b57611a9a6116eb565b5b92915050565b7f6d6178696d756d206f662034206f776e65727320706572206163636f756e7400600082015250565b6000611ad7601f83611596565b9150611ae282611aa1565b602082019050919050565b60006020820190508181036000830152611b0681611aca565b9050919050565b7f4e487b7100000000000000000000000000000000000000000000000000000000600052603260045260246000fd5b611b458161141e565b8114611b5057600080fd5b50565b600081359050611b6281611b3c565b92915050565b600060208284031215611b7e57611b7d61121b565b5b6000611b8c84828501611b53565b91505092915050565b7f6e6f206475706c6963617465206f776e65727300000000000000000000000000600082015250565b6000611bcb601383611596565b9150611bd682611b95565b602082019050919050565b60006020820190508181036000830152611bfa81611bbe565b9050919050565b7f4e487b7100000000000000000000000000000000000000000000000000000000600052604160045260246000fd5b7f4561636820757365722063616e20686176652061206d6178206f66203320616360008201527f636f756e74730000000000000000000000000000000000000000000000000000602082015250565b6000611c8c602683611596565b9150611c9782611c30565b604082019050919050565b60006020820190508181036000830152611cbb81611c7f565b9050919050565b60006040820190508181036000830152611cdc8185611464565b9050611ceb6020830184611288565b939250505056fea264697066735822122046512086e3d2da408bb19f3a64f711cdc45c998b3503ff9df3129bd14e07bb9664736f6c63430008110033",
  "linkReferences": {},
  "deployedLinkReferences": {}
}